{"abi":[{"type":"constructor","inputs":[{"name":"_name","type":"string","internalType":"string"},{"name":"_supportThreshold","type":"uint256","internalType":"uint256"},{"name":"_quorumPercentage","type":"uint256","internalType":"uint256"},{"name":"_maxProposalAge","type":"uint256","internalType":"uint256"},{"name":"_electionDuration","type":"uint256","internalType":"uint256"},{"name":"_allowMinting","type":"bool","internalType":"bool"},{"name":"_tokenPrice","type":"uint256","internalType":"uint256"},{"name":"_treasuryConfig","type":"string[]","internalType":"string[]"},{"name":"_initialHolders","type":"address[]","internalType":"address[]"},{"name":"_initialAmounts","type":"uint256[]","internalType":"uint256[]"}],"stateMutability":"nonpayable"},{"type":"receive","stateMutability":"payable"},{"type":"function","name":"acceptsERC1155","inputs":[],"outputs":[{"name":"","type":"bool","internalType":"bool"}],"stateMutability":"view"},{"type":"function","name":"acceptsERC20","inputs":[],"outputs":[{"name":"","type":"bool","internalType":"bool"}],"stateMutability":"view"},{"type":"function","name":"acceptsERC721","inputs":[],"outputs":[{"name":"","type":"bool","internalType":"bool"}],"stateMutability":"view"},{"type":"function","name":"acceptsETH","inputs":[],"outputs":[{"name":"","type":"bool","internalType":"bool"}],"stateMutability":"view"},{"type":"function","name":"activeProposal","inputs":[],"outputs":[{"name":"","type":"address","internalType":"address"}],"stateMutability":"view"},{"type":"function","name":"allowMinting","inputs":[],"outputs":[{"name":"","type":"bool","internalType":"bool"}],"stateMutability":"view"},{"type":"function","name":"balanceOf","inputs":[{"name":"account","type":"address","internalType":"address"},{"name":"id","type":"uint256","internalType":"uint256"}],"outputs":[{"name":"","type":"uint256","internalType":"uint256"}],"stateMutability":"view"},{"type":"function","name":"balanceOfBatch","inputs":[{"name":"accounts","type":"address[]","internalType":"address[]"},{"name":"ids","type":"uint256[]","internalType":"uint256[]"}],"outputs":[{"name":"","type":"uint256[]","internalType":"uint256[]"}],"stateMutability":"view"},{"type":"function","name":"clearActiveProposal","inputs":[],"outputs":[],"stateMutability":"nonpayable"},{"type":"function","name":"electionDuration","inputs":[],"outputs":[{"name":"","type":"uint256","internalType":"uint256"}],"stateMutability":"view"},{"type":"function","name":"getGovernanceTokenHolders","inputs":[],"outputs":[{"name":"","type":"address[]","internalType":"address[]"}],"stateMutability":"view"},{"type":"function","name":"getNextVotingTokenId","inputs":[],"outputs":[{"name":"","type":"uint256","internalType":"uint256"}],"stateMutability":"nonpayable"},{"type":"function","name":"hasTreasury","inputs":[],"outputs":[{"name":"","type":"bool","internalType":"bool"}],"stateMutability":"view"},{"type":"function","name":"isApprovedForAll","inputs":[{"name":"account","type":"address","internalType":"address"},{"name":"operator","type":"address","internalType":"address"}],"outputs":[{"name":"","type":"bool","internalType":"bool"}],"stateMutability":"view"},{"type":"function","name":"maxProposalAge","inputs":[],"outputs":[{"name":"","type":"uint256","internalType":"uint256"}],"stateMutability":"view"},{"type":"function","name":"mintGovernanceTokens","inputs":[{"name":"to","type":"address","internalType":"address"},{"name":"amount","type":"uint256","internalType":"uint256"}],"outputs":[],"stateMutability":"nonpayable"},{"type":"function","name":"mintVotingTokens","inputs":[{"name":"to","type":"address","internalType":"address"},{"name":"tokenId","type":"uint256","internalType":"uint256"},{"name":"amount","type":"uint256","internalType":"uint256"}],"outputs":[],"stateMutability":"nonpayable"},{"type":"function","name":"name","inputs":[],"outputs":[{"name":"","type":"string","internalType":"string"}],"stateMutability":"view"},{"type":"function","name":"purchaseTokens","inputs":[],"outputs":[],"stateMutability":"payable"},{"type":"function","name":"quorumPercentage","inputs":[],"outputs":[{"name":"","type":"uint256","internalType":"uint256"}],"stateMutability":"view"},{"type":"function","name":"safeBatchTransferFrom","inputs":[{"name":"from","type":"address","internalType":"address"},{"name":"to","type":"address","internalType":"address"},{"name":"ids","type":"uint256[]","internalType":"uint256[]"},{"name":"amounts","type":"uint256[]","internalType":"uint256[]"},{"name":"data","type":"bytes","internalType":"bytes"}],"outputs":[],"stateMutability":"nonpayable"},{"type":"function","name":"safeTransferFrom","inputs":[{"name":"from","type":"address","internalType":"address"},{"name":"to","type":"address","internalType":"address"},{"name":"id","type":"uint256","internalType":"uint256"},{"name":"amount","type":"uint256","internalType":"uint256"},{"name":"data","type":"bytes","internalType":"bytes"}],"outputs":[],"stateMutability":"nonpayable"},{"type":"function","name":"setActiveProposal","inputs":[{"name":"proposal","type":"address","internalType":"address"}],"outputs":[],"stateMutability":"nonpayable"},{"type":"function","name":"setApprovalForAll","inputs":[{"name":"operator","type":"address","internalType":"address"},{"name":"approved","type":"bool","internalType":"bool"}],"outputs":[],"stateMutability":"nonpayable"},{"type":"function","name":"setTokenPrice","inputs":[{"name":"newPrice","type":"uint256","internalType":"uint256"}],"outputs":[],"stateMutability":"nonpayable"},{"type":"function","name":"supportThreshold","inputs":[],"outputs":[{"name":"","type":"uint256","internalType":"uint256"}],"stateMutability":"view"},{"type":"function","name":"supportsInterface","inputs":[{"name":"interfaceId","type":"bytes4","internalType":"bytes4"}],"outputs":[{"name":"","type":"bool","internalType":"bool"}],"stateMutability":"view"},{"type":"function","name":"tokenPrice","inputs":[],"outputs":[{"name":"","type":"uint256","internalType":"uint256"}],"stateMutability":"view"},{"type":"function","name":"totalSupply","inputs":[{"name":"tokenId","type":"uint256","internalType":"uint256"}],"outputs":[{"name":"","type":"uint256","internalType":"uint256"}],"stateMutability":"view"},{"type":"function","name":"transferETH","inputs":[{"name":"recipient","type":"address","internalType":"address payable"},{"name":"amount","type":"uint256","internalType":"uint256"}],"outputs":[],"stateMutability":"nonpayable"},{"type":"function","name":"uri","inputs":[{"name":"","type":"uint256","internalType":"uint256"}],"outputs":[{"name":"","type":"string","internalType":"string"}],"stateMutability":"view"},{"type":"event","name":"ApprovalForAll","inputs":[{"name":"account","type":"address","indexed":true,"internalType":"address"},{"name":"operator","type":"address","indexed":true,"internalType":"address"},{"name":"approved","type":"bool","indexed":false,"internalType":"bool"}],"anonymous":false},{"type":"event","name":"TransferBatch","inputs":[{"name":"operator","type":"address","indexed":true,"internalType":"address"},{"name":"from","type":"address","indexed":true,"internalType":"address"},{"name":"to","type":"address","indexed":true,"internalType":"address"},{"name":"ids","type":"uint256[]","indexed":false,"internalType":"uint256[]"},{"name":"values","type":"uint256[]","indexed":false,"internalType":"uint256[]"}],"anonymous":false},{"type":"event","name":"TransferSingle","inputs":[{"name":"operator","type":"address","indexed":true,"internalType":"address"},{"name":"from","type":"address","indexed":true,"internalType":"address"},{"name":"to","type":"address","indexed":true,"internalType":"address"},{"name":"id","type":"uint256","indexed":false,"internalType":"uint256"},{"name":"value","type":"uint256","indexed":false,"internalType":"uint256"}],"anonymous":false},{"type":"event","name":"URI","inputs":[{"name":"value","type":"string","indexed":false,"internalType":"string"},{"name":"id","type":"uint256","indexed":true,"internalType":"uint256"}],"anonymous":false},{"type":"error","name":"ERC1155InsufficientBalance","inputs":[{"name":"sender","type":"address","internalType":"address"},{"name":"balance","type":"uint256","internalType":"uint256"},{"name":"needed","type":"uint256","internalType":"uint256"},{"name":"tokenId","type":"uint256","internalType":"uint256"}]},{"type":"error","name":"ERC1155InvalidApprover","inputs":[{"name":"approver","type":"address","internalType":"address"}]},{"type":"error","name":"ERC1155InvalidArrayLength","inputs":[{"name":"idsLength","type":"uint256","internalType":"uint256"},{"name":"valuesLength","type":"uint256","internalType":"uint256"}]},{"type":"error","name":"ERC1155InvalidOperator","inputs":[{"name":"operator","type":"address","internalType":"address"}]},{"type":"error","name":"ERC1155InvalidReceiver","inputs":[{"name":"receiver","type":"address","internalType":"address"}]},{"type":"error","name":"ERC1155InvalidSender","inputs":[{"name":"sender","type":"address","internalType":"address"}]},{"type":"error","name":"ERC1155MissingApprovalForAll","inputs":[{"name":"operator","type":"address","internalType":"address"},{"name":"owner","type":"address","internalType":"address"}]},{"type":"error","name":"ReentrancyGuardReentrantCall","inputs":[]}],"bytecode":{"object":"0x60806040526001600b55348015610014575f5ffd5b50604051612fac380380612fac83398101604081905261003391610bb6565b60408051602081019091525f815261004a81610406565b50600160035560648911156100a65760405162461bcd60e51b815260206004820181905260248201527f537570706f7274207468726573686f6c64206d757374206265203c3d2031303060448201526064015b60405180910390fd5b60648811156100f75760405162461bcd60e51b815260206004820152601560248201527f51756f72756d206d757374206265203c3d203130300000000000000000000000604482015260640161009d565b80518251146101485760405162461bcd60e51b815260206004820152601660248201527f417272617973206c656e677468206d69736d6174636800000000000000000000604482015260640161009d565b60046101548b82610d45565b5060058990556006889055600787905560088690556009805460ff1916861515179055600a8490558251600c805460ff60a01b1916911515600160a01b029190911790555f5b8351811015610307575f8482815181106101b6576101b6610dff565b60200260200101516040516020016101ce9190610e13565b6040516020818303038152906040528051906020012090506040516020016101ff906208aa8960eb1b815260030190565b60405160208183030381529060405280519060200120810361022f57600c805460ff60a81b1916600160a81b1790555b60405164045524332360dc1b602082015260250160405160208183030381529060405280519060200120810361027357600c805460ff60b01b1916600160b01b1790555b6040516545524337323160d01b60208201526026016040516020818303038152906040528051906020012081036102b857600c805460ff60b81b1916600160b81b1790555b604051664552433131353560c81b60208201526027016040516020818303038152906040528051906020012081036102fe57600c805460ff60c01b1916600160c01b1790555b5060010161019a565b505f5b82518110156103f6575f82828151811061032657610326610dff565b602002602001015111156103ee5761038683828151811061034957610349610dff565b60200260200101515f84848151811061036457610364610dff565b602002602001015160405180602001604052805f81525061041660201b60201c565b81818151811061039857610398610dff565b6020026020010151600f5f5f81526020019081526020015f205f8282546103bf9190610e29565b925050819055506103ee8382815181106103db576103db610dff565b602002602001015161047960201b60201c565b60010161030a565b5050505050505050505050610fb2565b60026104128282610d45565b5050565b6001600160a01b03841661043f57604051632bfa23e760e11b81525f600482015260240161009d565b604080516001808252602082018690528183019081526060820185905260808201909252906104715f87848487610500565b505050505050565b6001600160a01b0381165f908152600e602052604090205460ff166104fd576001600160a01b0381165f818152600e60205260408120805460ff19166001908117909155600d805491820181559091527fd7b6990105719101dabeb77144f2a3385c8033acd3af97e9423a695e81ad1eb50180546001600160a01b03191690911790555b50565b61050c8585858561055a565b6001600160a01b038416156105535782513390600103610545576020848101519084015161053e838989858589610769565b5050610471565b610471818787878787610893565b5050505050565b80518251146105895781518151604051635b05999160e01b81526004810192909252602482015260440161009d565b335f5b835181101561068b576020818102858101820151908501909101516001600160a01b0388161561063d575f828152602081815260408083206001600160a01b038c16845290915290205481811015610617576040516303dee4c560e01b81526001600160a01b038a16600482015260248101829052604481018390526064810184905260840161009d565b5f838152602081815260408083206001600160a01b038d16845290915290209082900390555b6001600160a01b03871615610681575f828152602081815260408083206001600160a01b038b1684529091528120805483929061067b908490610e29565b90915550505b505060010161058c565b50825160010361070b5760208301515f906020840151909150856001600160a01b0316876001600160a01b0316846001600160a01b03167fc3d58168c5ae7397731d063d5bbf3d657854427343f4c083240f7aacaa2d0f6285856040516106fc929190918252602082015260400190565b60405180910390a45050610553565b836001600160a01b0316856001600160a01b0316826001600160a01b03167f4a39dc06d4c0dbc64b70af90fd698a233a518aa5d07e595d983b8c0526c8f7fb868660405161075a929190610e88565b60405180910390a45050505050565b6001600160a01b0384163b156104715760405163f23a6e6160e01b81526001600160a01b0385169063f23a6e61906107ad9089908990889088908890600401610ee3565b6020604051808303815f875af19250505080156107e7575060408051601f3d908101601f191682019092526107e491810190610f27565b60015b61084e573d808015610814576040519150601f19603f3d011682016040523d82523d5f602084013e610819565b606091505b5080515f0361084657604051632bfa23e760e11b81526001600160a01b038616600482015260240161009d565b805181602001fd5b6001600160e01b0319811663f23a6e6160e01b1461088a57604051632bfa23e760e11b81526001600160a01b038616600482015260240161009d565b50505050505050565b6001600160a01b0384163b156104715760405163bc197c8160e01b81526001600160a01b0385169063bc197c81906108d79089908990889088908890600401610f55565b6020604051808303815f875af1925050508015610911575060408051601f3d908101601f1916820190925261090e91810190610f27565b60015b61093e573d808015610814576040519150601f19603f3d011682016040523d82523d5f602084013e610819565b6001600160e01b0319811663bc197c8160e01b1461088a57604051632bfa23e760e11b81526001600160a01b038616600482015260240161009d565b634e487b7160e01b5f52604160045260245ffd5b604051601f8201601f191681016001600160401b03811182821017156109b6576109b661097a565b604052919050565b5f82601f8301126109cd575f5ffd5b81516001600160401b038111156109e6576109e661097a565b6109f9601f8201601f191660200161098e565b818152846020838601011115610a0d575f5ffd5b8160208501602083015e5f918101602001919091529392505050565b80518015158114610a38575f5ffd5b919050565b5f6001600160401b03821115610a5557610a5561097a565b5060051b60200190565b5f82601f830112610a6e575f5ffd5b8151610a81610a7c82610a3d565b61098e565b8082825260208201915060208360051b860101925085831115610aa2575f5ffd5b602085015b83811015610ae25780516001600160401b03811115610ac4575f5ffd5b610ad3886020838a01016109be565b84525060209283019201610aa7565b5095945050505050565b5f82601f830112610afb575f5ffd5b8151610b09610a7c82610a3d565b8082825260208201915060208360051b860101925085831115610b2a575f5ffd5b602085015b83811015610ae25780516001600160a01b0381168114610b4d575f5ffd5b835260209283019201610b2f565b5f82601f830112610b6a575f5ffd5b8151610b78610a7c82610a3d565b8082825260208201915060208360051b860101925085831115610b99575f5ffd5b602085015b83811015610ae2578051835260209283019201610b9e565b5f5f5f5f5f5f5f5f5f5f6101408b8d031215610bd0575f5ffd5b8a516001600160401b03811115610be5575f5ffd5b610bf18d828e016109be565b9a50505f60208c01519050809950505f60408c01519050809850505f60608c01519050809750505f60808c0151905080965050610c3060a08c01610a29565b60c08c015160e08d015191965094506001600160401b03811115610c52575f5ffd5b610c5e8d828e01610a5f565b6101008d015190945090506001600160401b03811115610c7c575f5ffd5b610c888d828e01610aec565b6101208d015190935090506001600160401b03811115610ca6575f5ffd5b610cb28d828e01610b5b565b9150509295989b9194979a5092959850565b600181811c90821680610cd857607f821691505b602082108103610cf657634e487b7160e01b5f52602260045260245ffd5b50919050565b601f821115610d4057805f5260205f20601f840160051c81016020851015610d215750805b601f840160051c820191505b81811015610553575f8155600101610d2d565b505050565b81516001600160401b03811115610d5e57610d5e61097a565b610d7281610d6c8454610cc4565b84610cfc565b6020601f821160018114610da4575f8315610d8d5750848201515b5f19600385901b1c1916600184901b178455610553565b5f84815260208120601f198516915b82811015610dd35787850151825560209485019460019092019101610db3565b5084821015610df057868401515f19600387901b60f8161c191681555b50505050600190811b01905550565b634e487b7160e01b5f52603260045260245ffd5b5f82518060208501845e5f920191825250919050565b80820180821115610e4857634e487b7160e01b5f52601160045260245ffd5b92915050565b5f8151808452602084019350602083015f5b82811015610e7e578151865260209586019590910190600101610e60565b5093949350505050565b604081525f610e9a6040830185610e4e565b8281036020840152610eac8185610e4e565b95945050505050565b5f81518084528060208401602086015e5f602082860101526020601f19601f83011685010191505092915050565b6001600160a01b03868116825285166020820152604081018490526060810183905260a0608082018190525f90610f1c90830184610eb5565b979650505050505050565b5f60208284031215610f37575f5ffd5b81516001600160e01b031981168114610f4e575f5ffd5b9392505050565b6001600160a01b0386811682528516602082015260a0604082018190525f90610f8090830186610e4e565b8281036060840152610f928186610e4e565b90508281036080840152610fa68185610eb5565b98975050505050505050565b611fed80610fbf5f395ff3fe6080604052600436106101d2575f3560e01c80636a6ed700116100fd578063a22cb46511610092578063d419cf4811610062578063d419cf481461056a578063e985e9c5146105a1578063f242432a146105c0578063ffa96834146105df575f5ffd5b8063a22cb465146104ed578063a2911df11461050c578063b6dfb9d414610520578063bd85b0391461053f575f5ffd5b80637de0b0d1116100cd5780637de0b0d1146104795780637ff9b5961461049857806387f223d9146104ad57806393ce41cf146104cd575f5ffd5b80636a6ed700146104115780636b89c50a146104315780637b1a4909146104455780637c36e8e814610464575f5ffd5b8063217996f0116101735780634e1273f4116101435780634e1273f4146103915780634fa76ec9146103bd5780636a54ceae146103d25780636a61e5fc146103f2575f5ffd5b8063217996f0146103295780632eb2c2d61461034a5780633290ce29146103695780633b78e71c14610371575f5ffd5b80630cfb78cd116101ae5780630cfb78cd146102bd5780630e89341c146102dc5780631602a124146102fb5780631bf806cb14610314575f5ffd5b8062fdd58e1461023b57806301ffc9a71461026d57806306fdde031461029c575f5ffd5b3661023757600c54600160a81b900460ff166102355760405162461bcd60e51b815260206004820152601760248201527f44414f20646f6573206e6f74206163636570742045544800000000000000000060448201526064015b60405180910390fd5b005b5f5ffd5b348015610246575f5ffd5b5061025a6102553660046118d1565b6105f4565b6040519081526020015b60405180910390f35b348015610278575f5ffd5b5061028c610287366004611910565b61061b565b6040519015158152602001610264565b3480156102a7575f5ffd5b506102b061066a565b6040516102649190611960565b3480156102c8575f5ffd5b506102356102d73660046118d1565b6106f6565b3480156102e7575f5ffd5b506102b06102f6366004611972565b6107fe565b348015610306575f5ffd5b5060095461028c9060ff1681565b34801561031f575f5ffd5b5061025a60085481565b348015610334575f5ffd5b5061033d610890565b6040516102649190611989565b348015610355575f5ffd5b50610235610364366004611b12565b6108f0565b610235610a05565b34801561037c575f5ffd5b50600c5461028c90600160b81b900460ff1681565b34801561039c575f5ffd5b506103b06103ab366004611bc5565b610b8b565b6040516102649190611cc4565b3480156103c8575f5ffd5b5061025a60065481565b3480156103dd575f5ffd5b50600c5461028c90600160a01b900460ff1681565b3480156103fd575f5ffd5b5061023561040c366004611972565b610c56565b34801561041c575f5ffd5b50600c5461028c90600160b01b900460ff1681565b34801561043c575f5ffd5b5061025a610cc0565b348015610450575f5ffd5b5061023561045f3660046118d1565b610cd9565b34801561046f575f5ffd5b5061025a60055481565b348015610484575f5ffd5b50610235610493366004611cd6565b610d75565b3480156104a3575f5ffd5b5061025a600a5481565b3480156104b8575f5ffd5b50600c5461028c90600160c01b900460ff1681565b3480156104d8575f5ffd5b50600c5461028c90600160a81b900460ff1681565b3480156104f8575f5ffd5b50610235610507366004611d08565b610e10565b348015610517575f5ffd5b50610235610e1f565b34801561052b575f5ffd5b5061023561053a366004611d43565b610e8b565b34801561054a575f5ffd5b5061025a610559366004611972565b5f908152600f602052604090205490565b348015610575575f5ffd5b50600c54610589906001600160a01b031681565b6040516001600160a01b039091168152602001610264565b3480156105ac575f5ffd5b5061028c6105bb366004611d5e565b610f06565b3480156105cb575f5ffd5b506102356105da366004611d8a565b610f33565b3480156105ea575f5ffd5b5061025a60075481565b5f818152602081815260408083206001600160a01b03861684529091529020545b92915050565b5f6001600160e01b03198216636cdb3d1360e11b148061064b57506001600160e01b031982166303a24d0760e21b145b8061061557506301ffc9a760e01b6001600160e01b0319831614610615565b6004805461067790611de2565b80601f01602080910402602001604051908101604052809291908181526020018280546106a390611de2565b80156106ee5780601f106106c5576101008083540402835291602001916106ee565b820191905f5260205f20905b8154815290600101906020018083116106d157829003601f168201915b505050505081565b600c546001600160a01b031633146107505760405162461bcd60e51b815260206004820152601d60248201527f4f6e6c79206163746976652070726f706f73616c2063616e206d696e74000000604482015260640161022c565b60095460ff166107985760405162461bcd60e51b8152602060048201526013602482015272135a5b9d1a5b99c81b9bdd08185b1b1bddd959606a1b604482015260640161022c565b6107b2825f8360405180602001604052805f815250610fbf565b6107bb82611022565b5f808052600f6020527ff4803e074bd026baaf6ed2e288c9515f68c72fb7216eebdd7cae1718a53ec37580548392906107f5908490611e2e565b90915550505050565b60606002805461080d90611de2565b80601f016020809104026020016040519081016040528092919081815260200182805461083990611de2565b80156108845780601f1061085b57610100808354040283529160200191610884565b820191905f5260205f20905b81548152906001019060200180831161086757829003601f168201915b50505050509050919050565b6060600d8054806020026020016040519081016040528092919081815260200182805480156108e657602002820191905f5260205f20905b81546001600160a01b031681526001909101906020018083116108c8575b5050505050905090565b5f5b835181101561098c575f84828151811061090e5761090e611e41565b6020026020010151148061093f575061093f84828151811061093257610932611e41565b60200260200101516110a9565b6109845760405162461bcd60e51b815260206004820152601660248201527524b73b30b634b2103a37b5b2b7103a3930b739b332b960511b604482015260640161022c565b6001016108f2565b505f610998865f6105f4565b90505f6109a5865f6105f4565b90506109b487878787876110bc565b6109be875f6105f4565b1580156109ca57505f82115b156109d8576109d88761111b565b5f6109e3875f6105f4565b1180156109ee575080155b156109fc576109fc86611022565b50505050505050565b610a0d61124e565b5f600a5411610a5e5760405162461bcd60e51b815260206004820152601b60248201527f44697265637420746f6b656e2073616c65732064697361626c65640000000000604482015260640161022c565b5f3411610aa05760405162461bcd60e51b815260206004820152601060248201526f14185e5b595b9d081c995c5d5a5c995960821b604482015260640161022c565b600a54610aad9034611e69565b15610b0a5760405162461bcd60e51b815260206004820152602760248201527f5061796d656e74206d757374206265206d756c7469706c65206f6620746f6b656044820152666e20707269636560c81b606482015260840161022c565b5f600a5434610b199190611e7c565b9050610b35335f8360405180602001604052805f815250610fbf565b5f808052600f6020527ff4803e074bd026baaf6ed2e288c9515f68c72fb7216eebdd7cae1718a53ec3758054839290610b6f908490611e2e565b90915550610b7e905033611022565b50610b896001600355565b565b60608151835114610bbc5781518351604051635b05999160e01b81526004810192909252602482015260440161022c565b5f835167ffffffffffffffff811115610bd757610bd76119d4565b604051908082528060200260200182016040528015610c00578160200160208202803683370190505b5090505f5b8451811015610c4e57602080820286010151610c29906020808402870101516105f4565b828281518110610c3b57610c3b611e41565b6020908102919091010152600101610c05565b509392505050565b600c546001600160a01b03163314610cbb5760405162461bcd60e51b815260206004820152602260248201527f4f6e6c79206163746976652070726f706f73616c2063616e2073657420707269604482015261636560f01b606482015260840161022c565b600a55565b600b80545f9182610cd083611e8f565b91905055905090565b600c546001600160a01b03163314610d3d5760405162461bcd60e51b815260206004820152602160248201527f4f6e6c79206163746976652070726f706f73616c2063616e207472616e7366656044820152603960f91b606482015260840161022c565b6040516001600160a01b0383169082156108fc029083905f818181858888f19350505050158015610d70573d5f5f3e3d5ffd5b505050565b600c546001600160a01b03163314610dcf5760405162461bcd60e51b815260206004820152601d60248201527f4f6e6c79206163746976652070726f706f73616c2063616e206d696e74000000604482015260640161022c565b610de983838360405180602001604052805f815250610fbf565b5f828152600f602052604081208054839290610e06908490611e2e565b9091555050505050565b610e1b338383611278565b5050565b600c546001600160a01b03163314610e795760405162461bcd60e51b815260206004820152601e60248201527f4f6e6c79206163746976652070726f706f73616c2063616e20636c6561720000604482015260640161022c565b600c80546001600160a01b0319169055565b600c546001600160a01b031615610ee45760405162461bcd60e51b815260206004820152601760248201527f50726f706f73616c20616c726561647920616374697665000000000000000000604482015260640161022c565b600c80546001600160a01b0319166001600160a01b0392909216919091179055565b6001600160a01b039182165f90815260016020908152604080832093909416825291909152205460ff1690565b821580610f445750610f44836110a9565b610f895760405162461bcd60e51b815260206004820152601660248201527524b73b30b634b2103a37b5b2b7103a3930b739b332b960511b604482015260640161022c565b5f610f94865f6105f4565b90505f610fa1865f6105f4565b9050610fb0878787878761130c565b846109fc576109be875f6105f4565b6001600160a01b038416610fe857604051632bfa23e760e11b81525f600482015260240161022c565b6040805160018082526020820186905281830190815260608201859052608082019092529061101a5f8784848761136b565b505050505050565b6001600160a01b0381165f908152600e602052604090205460ff166110a6576001600160a01b0381165f818152600e60205260408120805460ff19166001908117909155600d805491820181559091527fd7b6990105719101dabeb77144f2a3385c8033acd3af97e9423a695e81ad1eb50180546001600160a01b03191690911790555b50565b5f5f82118015610615575050600b541190565b336001600160a01b03861681148015906110dd57506110db8682610f06565b155b1561110e5760405163711bec9160e11b81526001600160a01b0380831660048301528716602482015260440161022c565b61101a86868686866113c5565b6001600160a01b0381165f908152600e602052604090205460ff16156110a6576001600160a01b0381165f908152600e60205260408120805460ff191690555b600d54811015610e1b57816001600160a01b0316600d828154811061118257611182611e41565b5f918252602090912001546001600160a01b03160361124657600d80546111ab90600190611ea7565b815481106111bb576111bb611e41565b5f91825260209091200154600d80546001600160a01b0390921691839081106111e6576111e6611e41565b905f5260205f20015f6101000a8154816001600160a01b0302191690836001600160a01b03160217905550600d80548061122257611222611eba565b5f8281526020902081015f1990810180546001600160a01b03191690550190555050565b60010161115b565b60026003540361127157604051633ee5aeb560e01b815260040160405180910390fd5b6002600355565b6001600160a01b0382166112a05760405162ced3e160e81b81525f600482015260240161022c565b6001600160a01b038381165f81815260016020908152604080832094871680845294825291829020805460ff191686151590811790915591519182527f17307eab39ab6107e8899845ad3d59bd9653f200f220920489ca2b5937696c31910160405180910390a3505050565b336001600160a01b038616811480159061132d575061132b8682610f06565b155b1561135e5760405163711bec9160e11b81526001600160a01b0380831660048301528716602482015260440161022c565b61101a8686868686611423565b611377858585856114a6565b6001600160a01b038416156113be57825133906001036113b057602084810151908401516113a98389898585896116b5565b505061101a565b61101a8187878787876117d6565b5050505050565b6001600160a01b0384166113ee57604051632bfa23e760e11b81525f600482015260240161022c565b6001600160a01b03851661141657604051626a0d4560e21b81525f600482015260240161022c565b6113be858585858561136b565b6001600160a01b03841661144c57604051632bfa23e760e11b81525f600482015260240161022c565b6001600160a01b03851661147457604051626a0d4560e21b81525f600482015260240161022c565b604080516001808252602082018690528183019081526060820185905260808201909252906109fc878784848761136b565b80518251146114d55781518151604051635b05999160e01b81526004810192909252602482015260440161022c565b335f5b83518110156115d7576020818102858101820151908501909101516001600160a01b03881615611589575f828152602081815260408083206001600160a01b038c16845290915290205481811015611563576040516303dee4c560e01b81526001600160a01b038a16600482015260248101829052604481018390526064810184905260840161022c565b5f838152602081815260408083206001600160a01b038d16845290915290209082900390555b6001600160a01b038716156115cd575f828152602081815260408083206001600160a01b038b168452909152812080548392906115c7908490611e2e565b90915550505b50506001016114d8565b5082516001036116575760208301515f906020840151909150856001600160a01b0316876001600160a01b0316846001600160a01b03167fc3d58168c5ae7397731d063d5bbf3d657854427343f4c083240f7aacaa2d0f628585604051611648929190918252602082015260400190565b60405180910390a450506113be565b836001600160a01b0316856001600160a01b0316826001600160a01b03167f4a39dc06d4c0dbc64b70af90fd698a233a518aa5d07e595d983b8c0526c8f7fb86866040516116a6929190611ece565b60405180910390a45050505050565b6001600160a01b0384163b1561101a5760405163f23a6e6160e01b81526001600160a01b0385169063f23a6e61906116f99089908990889088908890600401611efb565b6020604051808303815f875af1925050508015611733575060408051601f3d908101601f1916820190925261173091810190611f3f565b60015b61179a573d808015611760576040519150601f19603f3d011682016040523d82523d5f602084013e611765565b606091505b5080515f0361179257604051632bfa23e760e11b81526001600160a01b038616600482015260240161022c565b805181602001fd5b6001600160e01b0319811663f23a6e6160e01b146109fc57604051632bfa23e760e11b81526001600160a01b038616600482015260240161022c565b6001600160a01b0384163b1561101a5760405163bc197c8160e01b81526001600160a01b0385169063bc197c819061181a9089908990889088908890600401611f5a565b6020604051808303815f875af1925050508015611854575060408051601f3d908101601f1916820190925261185191810190611f3f565b60015b611881573d808015611760576040519150601f19603f3d011682016040523d82523d5f602084013e611765565b6001600160e01b0319811663bc197c8160e01b146109fc57604051632bfa23e760e11b81526001600160a01b038616600482015260240161022c565b6001600160a01b03811681146110a6575f5ffd5b5f5f604083850312156118e2575f5ffd5b82356118ed816118bd565b946020939093013593505050565b6001600160e01b0319811681146110a6575f5ffd5b5f60208284031215611920575f5ffd5b813561192b816118fb565b9392505050565b5f81518084528060208401602086015e5f602082860101526020601f19601f83011685010191505092915050565b602081525f61192b6020830184611932565b5f60208284031215611982575f5ffd5b5035919050565b602080825282518282018190525f918401906040840190835b818110156119c95783516001600160a01b03168352602093840193909201916001016119a2565b509095945050505050565b634e487b7160e01b5f52604160045260245ffd5b604051601f8201601f1916810167ffffffffffffffff81118282101715611a1157611a116119d4565b604052919050565b5f67ffffffffffffffff821115611a3257611a326119d4565b5060051b60200190565b5f82601f830112611a4b575f5ffd5b8135611a5e611a5982611a19565b6119e8565b8082825260208201915060208360051b860101925085831115611a7f575f5ffd5b602085015b83811015611a9c578035835260209283019201611a84565b5095945050505050565b5f82601f830112611ab5575f5ffd5b813567ffffffffffffffff811115611acf57611acf6119d4565b611ae2601f8201601f19166020016119e8565b818152846020838601011115611af6575f5ffd5b816020850160208301375f918101602001919091529392505050565b5f5f5f5f5f60a08688031215611b26575f5ffd5b8535611b31816118bd565b94506020860135611b41816118bd565b9350604086013567ffffffffffffffff811115611b5c575f5ffd5b611b6888828901611a3c565b935050606086013567ffffffffffffffff811115611b84575f5ffd5b611b9088828901611a3c565b925050608086013567ffffffffffffffff811115611bac575f5ffd5b611bb888828901611aa6565b9150509295509295909350565b5f5f60408385031215611bd6575f5ffd5b823567ffffffffffffffff811115611bec575f5ffd5b8301601f81018513611bfc575f5ffd5b8035611c0a611a5982611a19565b8082825260208201915060208360051b850101925087831115611c2b575f5ffd5b6020840193505b82841015611c56578335611c45816118bd565b825260209384019390910190611c32565b9450505050602083013567ffffffffffffffff811115611c74575f5ffd5b611c8085828601611a3c565b9150509250929050565b5f8151808452602084019350602083015f5b82811015611cba578151865260209586019590910190600101611c9c565b5093949350505050565b602081525f61192b6020830184611c8a565b5f5f5f60608486031215611ce8575f5ffd5b8335611cf3816118bd565b95602085013595506040909401359392505050565b5f5f60408385031215611d19575f5ffd5b8235611d24816118bd565b915060208301358015158114611d38575f5ffd5b809150509250929050565b5f60208284031215611d53575f5ffd5b813561192b816118bd565b5f5f60408385031215611d6f575f5ffd5b8235611d7a816118bd565b91506020830135611d38816118bd565b5f5f5f5f5f60a08688031215611d9e575f5ffd5b8535611da9816118bd565b94506020860135611db9816118bd565b93506040860135925060608601359150608086013567ffffffffffffffff811115611bac575f5ffd5b600181811c90821680611df657607f821691505b602082108103611e1457634e487b7160e01b5f52602260045260245ffd5b50919050565b634e487b7160e01b5f52601160045260245ffd5b8082018082111561061557610615611e1a565b634e487b7160e01b5f52603260045260245ffd5b634e487b7160e01b5f52601260045260245ffd5b5f82611e7757611e77611e55565b500690565b5f82611e8a57611e8a611e55565b500490565b5f60018201611ea057611ea0611e1a565b5060010190565b8181038181111561061557610615611e1a565b634e487b7160e01b5f52603160045260245ffd5b604081525f611ee06040830185611c8a565b8281036020840152611ef28185611c8a565b95945050505050565b6001600160a01b03868116825285166020820152604081018490526060810183905260a0608082018190525f90611f3490830184611932565b979650505050505050565b5f60208284031215611f4f575f5ffd5b815161192b816118fb565b6001600160a01b0386811682528516602082015260a0604082018190525f90611f8590830186611c8a565b8281036060840152611f978186611c8a565b90508281036080840152611fab8185611932565b9897505050505050505056fea2646970667358221220c91ccce68ff8ad49d8d1033d655d4f35a5b2e09aaea36696775ea6769361a3d064736f6c634300081c0033","linkReferences":{}},"methodIdentifiers":{"acceptsERC1155()":"87f223d9","acceptsERC20()":"6a6ed700","acceptsERC721()":"3b78e71c","acceptsETH()":"93ce41cf","activeProposal()":"d419cf48","allowMinting()":"1602a124","balanceOf(address,uint256)":"00fdd58e","balanceOfBatch(address[],uint256[])":"4e1273f4","clearActiveProposal()":"a2911df1","electionDuration()":"1bf806cb","getGovernanceTokenHolders()":"217996f0","getNextVotingTokenId()":"6b89c50a","hasTreasury()":"6a54ceae","isApprovedForAll(address,address)":"e985e9c5","maxProposalAge()":"ffa96834","mintGovernanceTokens(address,uint256)":"0cfb78cd","mintVotingTokens(address,uint256,uint256)":"7de0b0d1","name()":"06fdde03","purchaseTokens()":"3290ce29","quorumPercentage()":"4fa76ec9","safeBatchTransferFrom(address,address,uint256[],uint256[],bytes)":"2eb2c2d6","safeTransferFrom(address,address,uint256,uint256,bytes)":"f242432a","setActiveProposal(address)":"b6dfb9d4","setApprovalForAll(address,bool)":"a22cb465","setTokenPrice(uint256)":"6a61e5fc","supportThreshold()":"7c36e8e8","supportsInterface(bytes4)":"01ffc9a7","tokenPrice()":"7ff9b596","totalSupply(uint256)":"bd85b039","transferETH(address,uint256)":"7b1a4909","uri(uint256)":"0e89341c"},"id":39}