{"abi":[{"type":"constructor","inputs":[{"name":"_dao","type":"address","internalType":"contract MarketDAO"}],"stateMutability":"nonpayable"},{"type":"function","name":"createMintProposal","inputs":[{"name":"description","type":"string","internalType":"string"},{"name":"recipient","type":"address","internalType":"address"},{"name":"amount","type":"uint256","internalType":"uint256"}],"outputs":[{"name":"","type":"address","internalType":"contract MintProposal"}],"stateMutability":"nonpayable"},{"type":"function","name":"createResolutionProposal","inputs":[{"name":"description","type":"string","internalType":"string"}],"outputs":[{"name":"","type":"address","internalType":"contract ResolutionProposal"}],"stateMutability":"nonpayable"},{"type":"function","name":"createTokenPriceProposal","inputs":[{"name":"description","type":"string","internalType":"string"},{"name":"newPrice","type":"uint256","internalType":"uint256"}],"outputs":[{"name":"","type":"address","internalType":"contract TokenPriceProposal"}],"stateMutability":"nonpayable"},{"type":"function","name":"createTreasuryProposal","inputs":[{"name":"description","type":"string","internalType":"string"},{"name":"recipient","type":"address","internalType":"address"},{"name":"amount","type":"uint256","internalType":"uint256"},{"name":"token","type":"address","internalType":"address"},{"name":"tokenId","type":"uint256","internalType":"uint256"}],"outputs":[{"name":"","type":"address","internalType":"contract TreasuryProposal"}],"stateMutability":"nonpayable"},{"type":"function","name":"dao","inputs":[],"outputs":[{"name":"","type":"address","internalType":"contract MarketDAO"}],"stateMutability":"view"},{"type":"function","name":"getProposal","inputs":[{"name":"index","type":"uint256","internalType":"uint256"}],"outputs":[{"name":"","type":"address","internalType":"address"}],"stateMutability":"view"},{"type":"function","name":"proposalCount","inputs":[],"outputs":[{"name":"","type":"uint256","internalType":"uint256"}],"stateMutability":"view"},{"type":"function","name":"proposals","inputs":[{"name":"","type":"uint256","internalType":"uint256"}],"outputs":[{"name":"","type":"address","internalType":"address"}],"stateMutability":"view"}],"bytecode":{"object":"0x6080604052348015600e575f5ffd5b5060405161665b38038061665b833981016040819052602b91604e565b5f80546001600160a01b0319166001600160a01b03929092169190911790556079565b5f60208284031215605d575f5ffd5b81516001600160a01b03811681146072575f5ffd5b9392505050565b6165d5806100865f395ff3fe608060405234801561000f575f5ffd5b5060043610610085575f3560e01c8063c7f758a811610058578063c7f758a814610106578063da35c66414610119578063e806481014610130578063fdd6f2b214610143575f5ffd5b8063013cf08b1461008957806316ed3b06146100ce5780634162169f146100e15780636a88efe1146100f3575b5f5ffd5b6100b1610097366004610456565b60016020525f90815260409020546001600160a01b031681565b6040516001600160a01b0390911681526020015b60405180910390f35b6100b16100dc366004610527565b610156565b5f546100b1906001600160a01b031681565b6100b1610101366004610592565b6101f9565b6100b1610114366004610456565b610292565b61012260025481565b6040519081526020016100c5565b6100b161013e3660046105e6565b6102fc565b6100b1610151366004610628565b610391565b5f5f5f5f9054906101000a90046001600160a01b0316878787878760405161017d90610422565b61018c96959493929190610690565b604051809103905ff0801580156101a5573d5f5f3e3d5ffd5b5090508060015f60025f8154809291906101be906106e2565b90915550815260208101919091526040015f2080546001600160a01b0319166001600160a01b03929092169190911790559695505050505050565b5f805460405182916001600160a01b03169086908690869061021a9061042f565b6102279493929190610706565b604051809103905ff080158015610240573d5f5f3e3d5ffd5b5090508060015f60025f815480929190610259906106e2565b90915550815260208101919091526040015f2080546001600160a01b0319166001600160a01b0392909216919091179055949350505050565b5f60025482106102e15760405162461bcd60e51b8152602060048201526016602482015275092dcecc2d8d2c840e0e4dee0dee6c2d840d2dcc8caf60531b604482015260640160405180910390fd5b505f908152600160205260409020546001600160a01b031690565b5f805460405182916001600160a01b0316908590859061031b9061043c565b61032793929190610745565b604051809103905ff080158015610340573d5f5f3e3d5ffd5b5090508060015f60025f815480929190610359906106e2565b90915550815260208101919091526040015f2080546001600160a01b0319166001600160a01b03929092169190911790559392505050565b5f805460405182916001600160a01b03169084906103ae90610449565b6103b9929190610778565b604051809103905ff0801580156103d2573d5f5f3e3d5ffd5b5090508060015f60025f8154809291906103eb906106e2565b90915550815260208101919091526040015f2080546001600160a01b0319166001600160a01b039290921691909117905592915050565b611c0b8061079c83390190565b61173d806123a783390190565b6115a080613ae483390190565b61151c8061508483390190565b5f60208284031215610466575f5ffd5b5035919050565b634e487b7160e01b5f52604160045260245ffd5b5f82601f830112610490575f5ffd5b813567ffffffffffffffff8111156104aa576104aa61046d565b604051601f8201601f19908116603f0116810167ffffffffffffffff811182821017156104d9576104d961046d565b6040528181528382016020018510156104f0575f5ffd5b816020850160208301375f918101602001919091529392505050565b80356001600160a01b0381168114610522575f5ffd5b919050565b5f5f5f5f5f60a0868803121561053b575f5ffd5b853567ffffffffffffffff811115610551575f5ffd5b61055d88828901610481565b95505061056c6020870161050c565b9350604086013592506105816060870161050c565b949793965091946080013592915050565b5f5f5f606084860312156105a4575f5ffd5b833567ffffffffffffffff8111156105ba575f5ffd5b6105c686828701610481565b9350506105d56020850161050c565b929592945050506040919091013590565b5f5f604083850312156105f7575f5ffd5b823567ffffffffffffffff81111561060d575f5ffd5b61061985828601610481565b95602094909401359450505050565b5f60208284031215610638575f5ffd5b813567ffffffffffffffff81111561064e575f5ffd5b61065a84828501610481565b949350505050565b5f81518084528060208401602086015e5f602082860101526020601f19601f83011685010191505092915050565b6001600160a01b038716815260c0602082018190525f906106b390830188610662565b6001600160a01b03968716604084015260608301959095525091909316608082015260a0019190915292915050565b5f600182016106ff57634e487b7160e01b5f52601160045260245ffd5b5060010190565b6001600160a01b03851681526080602082018190525f9061072990830186610662565b6001600160a01b03949094166040830152506060015292915050565b6001600160a01b03841681526060602082018190525f9061076890830185610662565b9050826040830152949350505050565b6001600160a01b03831681526040602082018190525f9061065a9083018461066256fe608060405234801561000f575f5ffd5b50604051611c0b380380611c0b83398101604081905261002e9161029a565b5f80546001600160a01b0388166001600160a01b0319918216179091556001805490911633179055858560036100648282610419565b50436002555f54604051632db7ee7560e21b81523060048201526001600160a01b039091169063b6dfb9d4906024015f604051808303815f87803b1580156100aa575f5ffd5b505af11580156100bc573d5f5f3e3d5ffd5b5050506001600160a01b03871692506101139150505760405162461bcd60e51b8152602060048201526011602482015270125b9d985b1a59081c9958da5c1a595b9d607a1b60448201526064015b60405180910390fd5b5f83116101625760405162461bcd60e51b815260206004820152601760248201527f416d6f756e74206d75737420626520706f736974697665000000000000000000604482015260640161010a565b5f5f9054906101000a90046001600160a01b03166001600160a01b0316636a54ceae6040518163ffffffff1660e01b8152600401602060405180830381865afa1580156101b1573d5f5f3e3d5ffd5b505050506040513d601f19601f820116820180604052508101906101d591906104d3565b6102215760405162461bcd60e51b815260206004820152601360248201527f44414f20686173206e6f20747265617375727900000000000000000000000000604482015260640161010a565b600b80546001600160a01b03199081166001600160a01b0396871617909155600c93909355600d805490931691909316179055600e55506104f99050565b6001600160a01b0381168114610273575f5ffd5b50565b634e487b7160e01b5f52604160045260245ffd5b80516102958161025f565b919050565b5f5f5f5f5f5f60c087890312156102af575f5ffd5b86516102ba8161025f565b60208801519096506001600160401b038111156102d5575f5ffd5b8701601f810189136102e5575f5ffd5b80516001600160401b038111156102fe576102fe610276565b604051601f8201601f19908116603f011681016001600160401b038111828210171561032c5761032c610276565b6040528181528282016020018b1015610343575f5ffd5b8160208401602083015e5f602083830101528097505050506103676040880161028a565b6060880151909450925061037d6080880161028a565b91505f60a08801519050809150509295509295509295565b600181811c908216806103a957607f821691505b6020821081036103c757634e487b7160e01b5f52602260045260245ffd5b50919050565b601f82111561041457805f5260205f20601f840160051c810160208510156103f25750805b601f840160051c820191505b81811015610411575f81556001016103fe565b50505b505050565b81516001600160401b0381111561043257610432610276565b610446816104408454610395565b846103cd565b6020601f821160018114610478575f83156104615750848201515b5f19600385901b1c1916600184901b178455610411565b5f84815260208120601f198516915b828110156104a75787850151825560209485019460019092019101610487565b50848210156104c457868401515f19600387901b60f8161c191681555b50505050600190811b01905550565b5f602082840312156104e3575f5ffd5b815180151581146104f2575f5ffd5b9392505050565b611705806105065f395ff3fe608060405234801561000f575f5ffd5b5060043610610127575f3560e01c8063a8e4fb90116100a9578063c1211c861161006e578063c1211c8614610243578063cf09e0d01461024c578063e660cc0814610255578063eaddd74214610274578063fc0c546a14610287575f5ffd5b8063a8e4fb90146101fe578063aa8c217c14610211578063b00d84311461021a578063b0b46ae614610227578063bd0ceeed1461023a575f5ffd5b806366d003ac116100ef57806366d003ac146101b25780636b4c002c146101c5578063702c35fb146101d85780637123f175146101e15780637284e416146101e9575f5ffd5b806317d70f7c1461012b57806331a38c891461014757806338872b171461016b5780634162169f1461019657806361461954146101a8575b5f5ffd5b610134600e5481565b6040519081526020015b60405180910390f35b600a5461015b90600160a01b900460ff1681565b604051901515815260200161013e565b600a5461017e906001600160a01b031681565b6040516001600160a01b03909116815260200161013e565b5f5461017e906001600160a01b031681565b6101b061029a565b005b600b5461017e906001600160a01b031681565b6101b06101d33660046113a1565b610649565b61013460045481565b61015b610738565b6101f1610838565b60405161013e91906113b8565b60015461017e906001600160a01b031681565b610134600c5481565b60065461015b9060ff1681565b6101b06102353660046113a1565b6108c4565b61013460085481565b61013460075481565b61013460025481565b610134610263366004611401565b60056020525f908152604090205481565b60095461017e906001600160a01b031681565b600d5461017e906001600160a01b031681565b60065460ff166102ea5760405162461bcd60e51b8152602060048201526016602482015275115b1958dd1a5bdb881b9bdd081d1c9a59d9d95c995960521b60448201526064015b60405180910390fd5b5f5f9054906101000a90046001600160a01b03166001600160a01b0316631bf806cb6040518163ffffffff1660e01b8152600401602060405180830381865afa158015610339573d5f5f3e3d5ffd5b505050506040513d601f19601f8201168201806040525081019061035d9190611423565b60075461036a919061144e565b4310156103b25760405162461bcd60e51b8152602060048201526016602482015275456c656374696f6e207374696c6c206f6e676f696e6760501b60448201526064016102e1565b5f805460085460405163bd85b03960e01b81526001600160a01b039092169163bd85b039916103e79160040190815260200190565b602060405180830381865afa158015610402573d5f5f3e3d5ffd5b505050506040513d601f19601f820116820180604052508101906104269190611423565b90505f60645f5f9054906101000a90046001600160a01b03166001600160a01b0316634fa76ec96040518163ffffffff1660e01b8152600401602060405180830381865afa15801561047a573d5f5f3e3d5ffd5b505050506040513d601f19601f8201168201806040525081019061049e9190611423565b6104a89084611467565b6104b2919061147e565b5f8054600954600854604051627eeac760e11b81526001600160a01b0392831660048201526024810191909152939450919291169062fdd58e90604401602060405180830381865afa15801561050a573d5f5f3e3d5ffd5b505050506040513d601f19601f8201168201806040525081019061052e9190611423565b5f8054600a54600854604051627eeac760e11b81526001600160a01b0392831660048201526024810191909152939450919291169062fdd58e90604401602060405180830381865afa158015610586573d5f5f3e3d5ffd5b505050506040513d601f19601f820116820180604052508101906105aa9190611423565b9050826105b7828461144e565b10156105f65760405162461bcd60e51b815260206004820152600e60248201526d145d5bdc9d5b481b9bdd081b595d60921b60448201526064016102e1565b80821161063b5760405162461bcd60e51b8152602060048201526013602482015272141c9bdc1bdcd85b081b9bdd081c185cdcd959606a1b60448201526064016102e1565b610643610b19565b50505050565b60065460ff161561069c5760405162461bcd60e51b815260206004820152601a60248201527f456c656374696f6e20616c72656164792074726967676572656400000000000060448201526064016102e1565b335f908152600560205260409020548111156106fa5760405162461bcd60e51b815260206004820152601e60248201527f496e73756666696369656e7420737570706f727420746f2072656d6f7665000060448201526064016102e1565b335f908152600560205260408120805483929061071890849061149d565b925050819055508060045f828254610730919061149d565b909155505050565b5f5f60645f5f9054906101000a90046001600160a01b03166001600160a01b0316637c36e8e86040518163ffffffff1660e01b8152600401602060405180830381865afa15801561078b573d5f5f3e3d5ffd5b505050506040513d601f19601f820116820180604052508101906107af9190611423565b5f805460405163bd85b03960e01b815260048101929092526001600160a01b03169063bd85b03990602401602060405180830381865afa1580156107f5573d5f5f3e3d5ffd5b505050506040513d601f19601f820116820180604052508101906108199190611423565b6108239190611467565b61082d919061147e565b600454101592915050565b60038054610845906114b0565b80601f0160208091040260200160405190810160405280929190818152602001828054610871906114b0565b80156108bc5780601f10610893576101008083540402835291602001916108bc565b820191905f5260205f20905b81548152906001019060200180831161089f57829003601f168201915b505050505081565b60065460ff16156109175760405162461bcd60e51b815260206004820152601a60248201527f456c656374696f6e20616c72656164792074726967676572656400000000000060448201526064016102e1565b5f8054604051627eeac760e11b8152336004820152602481019290925282916001600160a01b039091169062fdd58e90604401602060405180830381865afa158015610965573d5f5f3e3d5ffd5b505050506040513d601f19601f820116820180604052508101906109899190611423565b10156109d75760405162461bcd60e51b815260206004820152601e60248201527f496e73756666696369656e7420676f7665726e616e636520746f6b656e73000060448201526064016102e1565b5f8054604051627eeac760e11b815233600482015260248101929092526001600160a01b03169062fdd58e90604401602060405180830381865afa158015610a21573d5f5f3e3d5ffd5b505050506040513d601f19601f82011682018060405250810190610a459190611423565b335f90815260056020526040902054610a5f90839061144e565b1115610ac55760405162461bcd60e51b815260206004820152602f60248201527f43616e6e6f7420737570706f7274206d6f7265207468616e20676f7665726e6160448201526e1b98d9481d1bdad95b9cc81a195b19608a1b60648201526084016102e1565b335f9081526005602052604081208054839290610ae390849061144e565b925050819055508060045f828254610afb919061144e565b90915550610b099050610738565b15610b1657610b16611036565b50565b610b21611352565b600d546001600160a01b0316610c4f575f5f9054906101000a90046001600160a01b03166001600160a01b03166393ce41cf6040518163ffffffff1660e01b8152600401602060405180830381865afa158015610b80573d5f5f3e3d5ffd5b505050506040513d601f19601f82011682018060405250810190610ba491906114e8565b610be35760405162461bcd60e51b815260206004820152601060248201526f115512081b9bdd081858d8d95c1d195960821b60448201526064016102e1565b5f54600b54600c54604051637b1a490960e01b81526001600160a01b0392831660048201526024810191909152911690637b1a4909906044015b5f604051808303815f87803b158015610c34575f5ffd5b505af1158015610c46573d5f5f3e3d5ffd5b50505050610fd2565b600e545f03610d8c575f5f9054906101000a90046001600160a01b03166001600160a01b0316636a6ed7006040518163ffffffff1660e01b8152600401602060405180830381865afa158015610ca7573d5f5f3e3d5ffd5b505050506040513d601f19601f82011682018060405250810190610ccb91906114e8565b610d0c5760405162461bcd60e51b8152602060048201526012602482015271115490cc8c081b9bdd081858d8d95c1d195960721b60448201526064016102e1565b600d54600b54600c5460405163a9059cbb60e01b81526001600160a01b039283166004820152602481019190915291169063a9059cbb906044016020604051808303815f875af1158015610d62573d5f5f3e3d5ffd5b505050506040513d601f19601f82011682018060405250810190610d8691906114e8565b50610fd2565b600c54600103610e91575f5f9054906101000a90046001600160a01b03166001600160a01b0316633b78e71c6040518163ffffffff1660e01b8152600401602060405180830381865afa158015610de5573d5f5f3e3d5ffd5b505050506040513d601f19601f82011682018060405250810190610e0991906114e8565b610e4b5760405162461bcd60e51b8152602060048201526013602482015272115490cdcc8c481b9bdd081858d8d95c1d1959606a1b60448201526064016102e1565b600d545f54600b54600e546040516323b872dd60e01b81526001600160a01b039384166004820152918316602483015260448201529116906323b872dd90606401610c1d565b5f5f9054906101000a90046001600160a01b03166001600160a01b03166387f223d96040518163ffffffff1660e01b8152600401602060405180830381865afa158015610ee0573d5f5f3e3d5ffd5b505050506040513d601f19601f82011682018060405250810190610f0491906114e8565b610f475760405162461bcd60e51b8152602060048201526014602482015273115490cc4c4d4d481b9bdd081858d8d95c1d195960621b60448201526064016102e1565b600d545f8054600b54600e54600c54604051637921219560e11b81526001600160a01b03948516600482015292841660248401526044830191909152606482015260a0608482015260a48101929092529091169063f242432a9060c4015f604051808303815f87803b158015610fbb575f5ffd5b505af1158015610fcd573d5f5f3e3d5ffd5b505050505b600a805460ff60a01b1916600160a01b1790555f80546040805163a2911df160e01b815290516001600160a01b039092169263a2911df19260048084019382900301818387803b158015611024575f5ffd5b505af1158015610643573d5f5f3e3d5ffd5b6006805460ff19166001179055436007555f8054604080516335c4e28560e11b815290516001600160a01b0390921692636b89c50a9260048084019360209390839003909101908290875af1158015611091573d5f5f3e3d5ffd5b505050506040513d601f19601f820116820180604052508101906110b59190611423565b60088190556001546040515f926110df9290916001600160a01b0390911690600390602001611507565b604051602081830303815290604052805190602001209050806040516020016111169181526279657360e81b602082015260230190565b60408051808303601f190181528282528051602091820120600980546001600160a01b0319166001600160a01b039092169190911790558201839052616e6f60f01b9082015260420160408051808303601f190181528282528051602090910120600a80546001600160a01b0319166001600160a01b039283161790555f8054630217996f60e41b855292519093929091169163217996f091600480830192869291908290030181865afa1580156111d0573d5f5f3e3d5ffd5b505050506040513d5f823e601f3d908101601f191682016040526111f791908101906115f0565b90505f5b815181101561134d575f805483516001600160a01b039091169062fdd58e9085908590811061122c5761122c6116bb565b60200260200101515f6040518363ffffffff1660e01b81526004016112669291906001600160a01b03929092168252602082015260400190565b602060405180830381865afa158015611281573d5f5f3e3d5ffd5b505050506040513d601f19601f820116820180604052508101906112a59190611423565b90508015611344575f5483516001600160a01b0390911690637de0b0d1908590859081106112d5576112d56116bb565b60209081029190910101516008546040516001600160e01b031960e085901b1681526001600160a01b0390921660048301526024820152604481018490526064015f604051808303815f87803b15801561132d575f5ffd5b505af115801561133f573d5f5f3e3d5ffd5b505050505b506001016111fb565b505050565b600a54600160a01b900460ff161561139f5760405162461bcd60e51b815260206004820152601060248201526f105b1c9958591e48195e1958dd5d195960821b60448201526064016102e1565b565b5f602082840312156113b1575f5ffd5b5035919050565b602081525f82518060208401528060208501604085015e5f604082850101526040601f19601f83011684010191505092915050565b6001600160a01b0381168114610b16575f5ffd5b5f60208284031215611411575f5ffd5b813561141c816113ed565b9392505050565b5f60208284031215611433575f5ffd5b5051919050565b634e487b7160e01b5f52601160045260245ffd5b808201808211156114615761146161143a565b92915050565b80820281158282048414176114615761146161143a565b5f8261149857634e487b7160e01b5f52601260045260245ffd5b500490565b818103818111156114615761146161143a565b600181811c908216806114c457607f821691505b6020821081036114e257634e487b7160e01b5f52602260045260245ffd5b50919050565b5f602082840312156114f8575f5ffd5b8151801515811461141c575f5ffd5b8381526bffffffffffffffffffffffff198360601b1660208201525f5f83545f8160011c9050600182168061153d57607f821691505b60208210810361155b57634e487b7160e01b5f52602260045260245ffd5b80801561156f576001811461158a576115be565b60ff19841660348801526034831515840288010194506115be565b5f888152602090205f5b848110156115b357815489820160340152600190910190602001611594565b505060348388010194505b509298975050505050505050565b634e487b7160e01b5f52604160045260245ffd5b80516115eb816113ed565b919050565b5f60208284031215611600575f5ffd5b815167ffffffffffffffff811115611616575f5ffd5b8201601f81018413611626575f5ffd5b805167ffffffffffffffff811115611640576116406115cc565b8060051b604051601f19603f830116810181811067ffffffffffffffff8211171561166d5761166d6115cc565b60405291825260208184018101929081018784111561168a575f5ffd5b6020850194505b838510156116b0576116a2856115e0565b815260209485019401611691565b509695505050505050565b634e487b7160e01b5f52603260045260245ffdfea26469706673582212203c1ef879d51d278488636233099fa3fadf740f6487a9f6ecc03a36b08842255564736f6c634300081c0033608060405234801561000f575f5ffd5b5060405161173d38038061173d83398101604081905261002e91610288565b5f80546001600160a01b0386166001600160a01b03199182161790915560018054909116331790558383600361006482826103e7565b50436002555f54604051632db7ee7560e21b81523060048201526001600160a01b039091169063b6dfb9d4906024015f604051808303815f87803b1580156100aa575f5ffd5b505af11580156100bc573d5f5f3e3d5ffd5b5050506001600160a01b03851692506101139150505760405162461bcd60e51b8152602060048201526011602482015270125b9d985b1a59081c9958da5c1a595b9d607a1b60448201526064015b60405180910390fd5b5f81116101625760405162461bcd60e51b815260206004820152601760248201527f416d6f756e74206d75737420626520706f736974697665000000000000000000604482015260640161010a565b5f5f9054906101000a90046001600160a01b03166001600160a01b0316631602a1246040518163ffffffff1660e01b8152600401602060405180830381865afa1580156101b1573d5f5f3e3d5ffd5b505050506040513d601f19601f820116820180604052508101906101d591906104a1565b6102215760405162461bcd60e51b815260206004820152601360248201527f4d696e74696e67206e6f7420616c6c6f77656400000000000000000000000000604482015260640161010a565b600b80546001600160a01b0319166001600160a01b039390931692909217909155600c55506104c79050565b6001600160a01b0381168114610261575f5ffd5b50565b634e487b7160e01b5f52604160045260245ffd5b80516102838161024d565b919050565b5f5f5f5f6080858703121561029b575f5ffd5b84516102a68161024d565b60208601519094506001600160401b038111156102c1575f5ffd5b8501601f810187136102d1575f5ffd5b80516001600160401b038111156102ea576102ea610264565b604051601f8201601f19908116603f011681016001600160401b038111828210171561031857610318610264565b60405281815282820160200189101561032f575f5ffd5b8160208401602083015e5f6020838301015280955050505061035360408601610278565b6060959095015193969295505050565b600181811c9082168061037757607f821691505b60208210810361039557634e487b7160e01b5f52602260045260245ffd5b50919050565b601f8211156103e257805f5260205f20601f840160051c810160208510156103c05750805b601f840160051c820191505b818110156103df575f81556001016103cc565b50505b505050565b81516001600160401b0381111561040057610400610264565b6104148161040e8454610363565b8461039b565b6020601f821160018114610446575f831561042f5750848201515b5f19600385901b1c1916600184901b1784556103df565b5f84815260208120601f198516915b828110156104755787850151825560209485019460019092019101610455565b508482101561049257868401515f19600387901b60f8161c191681555b50505050600190811b01905550565b5f602082840312156104b1575f5ffd5b815180151581146104c0575f5ffd5b9392505050565b611269806104d45f395ff3fe608060405234801561000f575f5ffd5b5060043610610111575f3560e01c8063a8e4fb901161009e578063bd0ceeed1161006e578063bd0ceeed1461021b578063c1211c8614610224578063cf09e0d01461022d578063e660cc0814610236578063eaddd74214610255575f5ffd5b8063a8e4fb90146101df578063aa8c217c146101f2578063b00d8431146101fb578063b0b46ae614610208575f5ffd5b806366d003ac116100e457806366d003ac146101855780636b4c002c14610198578063702c35fb146101ab5780637123f175146101c25780637284e416146101ca575f5ffd5b806331a38c891461011557806338872b171461013e5780634162169f14610169578063614619541461017b575b5f5ffd5b600a5461012990600160a01b900460ff1681565b60405190151581526020015b60405180910390f35b600a54610151906001600160a01b031681565b6040516001600160a01b039091168152602001610135565b5f54610151906001600160a01b031681565b610183610268565b005b600b54610151906001600160a01b031681565b6101836101a6366004610f24565b610617565b6101b460045481565b604051908152602001610135565b610129610706565b6101d2610806565b6040516101359190610f3b565b600154610151906001600160a01b031681565b6101b4600c5481565b6006546101299060ff1681565b610183610216366004610f24565b610892565b6101b460085481565b6101b460075481565b6101b460025481565b6101b4610244366004610f84565b60056020525f908152604090205481565b600954610151906001600160a01b031681565b60065460ff166102b85760405162461bcd60e51b8152602060048201526016602482015275115b1958dd1a5bdb881b9bdd081d1c9a59d9d95c995960521b60448201526064015b60405180910390fd5b5f5f9054906101000a90046001600160a01b03166001600160a01b0316631bf806cb6040518163ffffffff1660e01b8152600401602060405180830381865afa158015610307573d5f5f3e3d5ffd5b505050506040513d601f19601f8201168201806040525081019061032b9190610fa6565b6007546103389190610fd1565b4310156103805760405162461bcd60e51b8152602060048201526016602482015275456c656374696f6e207374696c6c206f6e676f696e6760501b60448201526064016102af565b5f805460085460405163bd85b03960e01b81526001600160a01b039092169163bd85b039916103b59160040190815260200190565b602060405180830381865afa1580156103d0573d5f5f3e3d5ffd5b505050506040513d601f19601f820116820180604052508101906103f49190610fa6565b90505f60645f5f9054906101000a90046001600160a01b03166001600160a01b0316634fa76ec96040518163ffffffff1660e01b8152600401602060405180830381865afa158015610448573d5f5f3e3d5ffd5b505050506040513d601f19601f8201168201806040525081019061046c9190610fa6565b6104769084610fea565b6104809190611001565b5f8054600954600854604051627eeac760e11b81526001600160a01b0392831660048201526024810191909152939450919291169062fdd58e90604401602060405180830381865afa1580156104d8573d5f5f3e3d5ffd5b505050506040513d601f19601f820116820180604052508101906104fc9190610fa6565b5f8054600a54600854604051627eeac760e11b81526001600160a01b0392831660048201526024810191909152939450919291169062fdd58e90604401602060405180830381865afa158015610554573d5f5f3e3d5ffd5b505050506040513d601f19601f820116820180604052508101906105789190610fa6565b9050826105858284610fd1565b10156105c45760405162461bcd60e51b815260206004820152600e60248201526d145d5bdc9d5b481b9bdd081b595d60921b60448201526064016102af565b8082116106095760405162461bcd60e51b8152602060048201526013602482015272141c9bdc1bdcd85b081b9bdd081c185cdcd959606a1b60448201526064016102af565b610611610ae7565b50505050565b60065460ff161561066a5760405162461bcd60e51b815260206004820152601a60248201527f456c656374696f6e20616c72656164792074726967676572656400000000000060448201526064016102af565b335f908152600560205260409020548111156106c85760405162461bcd60e51b815260206004820152601e60248201527f496e73756666696369656e7420737570706f727420746f2072656d6f7665000060448201526064016102af565b335f90815260056020526040812080548392906106e6908490611020565b925050819055508060045f8282546106fe9190611020565b909155505050565b5f5f60645f5f9054906101000a90046001600160a01b03166001600160a01b0316637c36e8e86040518163ffffffff1660e01b8152600401602060405180830381865afa158015610759573d5f5f3e3d5ffd5b505050506040513d601f19601f8201168201806040525081019061077d9190610fa6565b5f805460405163bd85b03960e01b815260048101929092526001600160a01b03169063bd85b03990602401602060405180830381865afa1580156107c3573d5f5f3e3d5ffd5b505050506040513d601f19601f820116820180604052508101906107e79190610fa6565b6107f19190610fea565b6107fb9190611001565b600454101592915050565b6003805461081390611033565b80601f016020809104026020016040519081016040528092919081815260200182805461083f90611033565b801561088a5780601f106108615761010080835404028352916020019161088a565b820191905f5260205f20905b81548152906001019060200180831161086d57829003601f168201915b505050505081565b60065460ff16156108e55760405162461bcd60e51b815260206004820152601a60248201527f456c656374696f6e20616c72656164792074726967676572656400000000000060448201526064016102af565b5f8054604051627eeac760e11b8152336004820152602481019290925282916001600160a01b039091169062fdd58e90604401602060405180830381865afa158015610933573d5f5f3e3d5ffd5b505050506040513d601f19601f820116820180604052508101906109579190610fa6565b10156109a55760405162461bcd60e51b815260206004820152601e60248201527f496e73756666696369656e7420676f7665726e616e636520746f6b656e73000060448201526064016102af565b5f8054604051627eeac760e11b815233600482015260248101929092526001600160a01b03169062fdd58e90604401602060405180830381865afa1580156109ef573d5f5f3e3d5ffd5b505050506040513d601f19601f82011682018060405250810190610a139190610fa6565b335f90815260056020526040902054610a2d908390610fd1565b1115610a935760405162461bcd60e51b815260206004820152602f60248201527f43616e6e6f7420737570706f7274206d6f7265207468616e20676f7665726e6160448201526e1b98d9481d1bdad95b9cc81a195b19608a1b60648201526084016102af565b335f9081526005602052604081208054839290610ab1908490610fd1565b925050819055508060045f828254610ac99190610fd1565b90915550610ad79050610706565b15610ae457610ae4610bb9565b50565b610aef610ed5565b5f54600b54600c54604051630cfb78cd60e01b81526001600160a01b0392831660048201526024810191909152911690630cfb78cd906044015f604051808303815f87803b158015610b3f575f5ffd5b505af1158015610b51573d5f5f3e3d5ffd5b5050600a805460ff60a01b1916600160a01b17905550505f80546040805163a2911df160e01b815290516001600160a01b039092169263a2911df19260048084019382900301818387803b158015610ba7575f5ffd5b505af1158015610611573d5f5f3e3d5ffd5b6006805460ff19166001179055436007555f8054604080516335c4e28560e11b815290516001600160a01b0390921692636b89c50a9260048084019360209390839003909101908290875af1158015610c14573d5f5f3e3d5ffd5b505050506040513d601f19601f82011682018060405250810190610c389190610fa6565b60088190556001546040515f92610c629290916001600160a01b039091169060039060200161106b565b60405160208183030381529060405280519060200120905080604051602001610c999181526279657360e81b602082015260230190565b60408051808303601f190181528282528051602091820120600980546001600160a01b0319166001600160a01b039092169190911790558201839052616e6f60f01b9082015260420160408051808303601f190181528282528051602090910120600a80546001600160a01b0319166001600160a01b039283161790555f8054630217996f60e41b855292519093929091169163217996f091600480830192869291908290030181865afa158015610d53573d5f5f3e3d5ffd5b505050506040513d5f823e601f3d908101601f19168201604052610d7a9190810190611154565b90505f5b8151811015610ed0575f805483516001600160a01b039091169062fdd58e90859085908110610daf57610daf61121f565b60200260200101515f6040518363ffffffff1660e01b8152600401610de99291906001600160a01b03929092168252602082015260400190565b602060405180830381865afa158015610e04573d5f5f3e3d5ffd5b505050506040513d601f19601f82011682018060405250810190610e289190610fa6565b90508015610ec7575f5483516001600160a01b0390911690637de0b0d190859085908110610e5857610e5861121f565b60209081029190910101516008546040516001600160e01b031960e085901b1681526001600160a01b0390921660048301526024820152604481018490526064015f604051808303815f87803b158015610eb0575f5ffd5b505af1158015610ec2573d5f5f3e3d5ffd5b505050505b50600101610d7e565b505050565b600a54600160a01b900460ff1615610f225760405162461bcd60e51b815260206004820152601060248201526f105b1c9958591e48195e1958dd5d195960821b60448201526064016102af565b565b5f60208284031215610f34575f5ffd5b5035919050565b602081525f82518060208401528060208501604085015e5f604082850101526040601f19601f83011684010191505092915050565b6001600160a01b0381168114610ae4575f5ffd5b5f60208284031215610f94575f5ffd5b8135610f9f81610f70565b9392505050565b5f60208284031215610fb6575f5ffd5b5051919050565b634e487b7160e01b5f52601160045260245ffd5b80820180821115610fe457610fe4610fbd565b92915050565b8082028115828204841417610fe457610fe4610fbd565b5f8261101b57634e487b7160e01b5f52601260045260245ffd5b500490565b81810381811115610fe457610fe4610fbd565b600181811c9082168061104757607f821691505b60208210810361106557634e487b7160e01b5f52602260045260245ffd5b50919050565b8381526bffffffffffffffffffffffff198360601b1660208201525f5f83545f8160011c905060018216806110a157607f821691505b6020821081036110bf57634e487b7160e01b5f52602260045260245ffd5b8080156110d357600181146110ee57611122565b60ff1984166034880152603483151584028801019450611122565b5f888152602090205f5b84811015611117578154898201603401526001909101906020016110f8565b505060348388010194505b509298975050505050505050565b634e487b7160e01b5f52604160045260245ffd5b805161114f81610f70565b919050565b5f60208284031215611164575f5ffd5b815167ffffffffffffffff81111561117a575f5ffd5b8201601f8101841361118a575f5ffd5b805167ffffffffffffffff8111156111a4576111a4611130565b8060051b604051601f19603f830116810181811067ffffffffffffffff821117156111d1576111d1611130565b6040529182526020818401810192908101878411156111ee575f5ffd5b6020850194505b838510156112145761120685611144565b8152602094850194016111f5565b509695505050505050565b634e487b7160e01b5f52603260045260245ffdfea26469706673582212201a9abec33eb11375ce22596153388a3c6ae5a04fae860c1ecdf66964c2551e7764736f6c634300081c0033608060405234801561000f575f5ffd5b506040516115a03803806115a083398101604081905261002e91610135565b5f80546001600160a01b0385166001600160a01b0319918216179091556001805490911633179055828260036100648282610293565b50436002555f54604051632db7ee7560e21b81523060048201526001600160a01b039091169063b6dfb9d4906024015f604051808303815f87803b1580156100aa575f5ffd5b505af11580156100bc573d5f5f3e3d5ffd5b5050505050505f8251116101165760405162461bcd60e51b815260206004820152601460248201527f4465736372697074696f6e207265717569726564000000000000000000000000604482015260640160405180910390fd5b600b555061034d9050565b634e487b7160e01b5f52604160045260245ffd5b5f5f5f60608486031215610147575f5ffd5b83516001600160a01b038116811461015d575f5ffd5b60208501519093506001600160401b03811115610178575f5ffd5b8401601f81018613610188575f5ffd5b80516001600160401b038111156101a1576101a1610121565b604051601f8201601f19908116603f011681016001600160401b03811182821017156101cf576101cf610121565b6040528181528282016020018810156101e6575f5ffd5b8160208401602083015e5f91810160200191909152604095909501519396949550929392505050565b600181811c9082168061022357607f821691505b60208210810361024157634e487b7160e01b5f52602260045260245ffd5b50919050565b601f82111561028e57805f5260205f20601f840160051c8101602085101561026c5750805b601f840160051c820191505b8181101561028b575f8155600101610278565b50505b505050565b81516001600160401b038111156102ac576102ac610121565b6102c0816102ba845461020f565b84610247565b6020601f8211600181146102f2575f83156102db5750848201515b5f19600385901b1c1916600184901b17845561028b565b5f84815260208120601f198516915b828110156103215787850151825560209485019460019092019101610301565b508482101561033e57868401515f19600387901b60f8161c191681555b50505050600190811b01905550565b6112468061035a5f395ff3fe608060405234801561000f575f5ffd5b5060043610610106575f3560e01c80637284e4161161009e578063bd0ceeed1161006e578063bd0ceeed146101fd578063c1211c8614610206578063cf09e0d01461020f578063e660cc0814610218578063eaddd74214610237575f5ffd5b80637284e416146101b5578063a8e4fb90146101ca578063b00d8431146101dd578063b0b46ae6146101ea575f5ffd5b806361461954116100d957806361461954146101875780636b4c002c14610191578063702c35fb146101a45780637123f175146101ad575f5ffd5b806331a38c891461010a57806338872b17146101335780634162169f1461015e57806351df9db914610170575b5f5ffd5b600a5461011e90600160a01b900460ff1681565b60405190151581526020015b60405180910390f35b600a54610146906001600160a01b031681565b6040516001600160a01b03909116815260200161012a565b5f54610146906001600160a01b031681565b610179600b5481565b60405190815260200161012a565b61018f61024a565b005b61018f61019f366004610f01565b6105f9565b61017960045481565b61011e6106e8565b6101bd6107e8565b60405161012a9190610f18565b600154610146906001600160a01b031681565b60065461011e9060ff1681565b61018f6101f8366004610f01565b610874565b61017960085481565b61017960075481565b61017960025481565b610179610226366004610f61565b60056020525f908152604090205481565b600954610146906001600160a01b031681565b60065460ff1661029a5760405162461bcd60e51b8152602060048201526016602482015275115b1958dd1a5bdb881b9bdd081d1c9a59d9d95c995960521b60448201526064015b60405180910390fd5b5f5f9054906101000a90046001600160a01b03166001600160a01b0316631bf806cb6040518163ffffffff1660e01b8152600401602060405180830381865afa1580156102e9573d5f5f3e3d5ffd5b505050506040513d601f19601f8201168201806040525081019061030d9190610f83565b60075461031a9190610fae565b4310156103625760405162461bcd60e51b8152602060048201526016602482015275456c656374696f6e207374696c6c206f6e676f696e6760501b6044820152606401610291565b5f805460085460405163bd85b03960e01b81526001600160a01b039092169163bd85b039916103979160040190815260200190565b602060405180830381865afa1580156103b2573d5f5f3e3d5ffd5b505050506040513d601f19601f820116820180604052508101906103d69190610f83565b90505f60645f5f9054906101000a90046001600160a01b03166001600160a01b0316634fa76ec96040518163ffffffff1660e01b8152600401602060405180830381865afa15801561042a573d5f5f3e3d5ffd5b505050506040513d601f19601f8201168201806040525081019061044e9190610f83565b6104589084610fc7565b6104629190610fde565b5f8054600954600854604051627eeac760e11b81526001600160a01b0392831660048201526024810191909152939450919291169062fdd58e90604401602060405180830381865afa1580156104ba573d5f5f3e3d5ffd5b505050506040513d601f19601f820116820180604052508101906104de9190610f83565b5f8054600a54600854604051627eeac760e11b81526001600160a01b0392831660048201526024810191909152939450919291169062fdd58e90604401602060405180830381865afa158015610536573d5f5f3e3d5ffd5b505050506040513d601f19601f8201168201806040525081019061055a9190610f83565b9050826105678284610fae565b10156105a65760405162461bcd60e51b815260206004820152600e60248201526d145d5bdc9d5b481b9bdd081b595d60921b6044820152606401610291565b8082116105eb5760405162461bcd60e51b8152602060048201526013602482015272141c9bdc1bdcd85b081b9bdd081c185cdcd959606a1b6044820152606401610291565b6105f3610ac9565b50505050565b60065460ff161561064c5760405162461bcd60e51b815260206004820152601a60248201527f456c656374696f6e20616c7265616479207472696767657265640000000000006044820152606401610291565b335f908152600560205260409020548111156106aa5760405162461bcd60e51b815260206004820152601e60248201527f496e73756666696369656e7420737570706f727420746f2072656d6f766500006044820152606401610291565b335f90815260056020526040812080548392906106c8908490610ffd565b925050819055508060045f8282546106e09190610ffd565b909155505050565b5f5f60645f5f9054906101000a90046001600160a01b03166001600160a01b0316637c36e8e86040518163ffffffff1660e01b8152600401602060405180830381865afa15801561073b573d5f5f3e3d5ffd5b505050506040513d601f19601f8201168201806040525081019061075f9190610f83565b5f805460405163bd85b03960e01b815260048101929092526001600160a01b03169063bd85b03990602401602060405180830381865afa1580156107a5573d5f5f3e3d5ffd5b505050506040513d601f19601f820116820180604052508101906107c99190610f83565b6107d39190610fc7565b6107dd9190610fde565b600454101592915050565b600380546107f590611010565b80601f016020809104026020016040519081016040528092919081815260200182805461082190611010565b801561086c5780601f106108435761010080835404028352916020019161086c565b820191905f5260205f20905b81548152906001019060200180831161084f57829003601f168201915b505050505081565b60065460ff16156108c75760405162461bcd60e51b815260206004820152601a60248201527f456c656374696f6e20616c7265616479207472696767657265640000000000006044820152606401610291565b5f8054604051627eeac760e11b8152336004820152602481019290925282916001600160a01b039091169062fdd58e90604401602060405180830381865afa158015610915573d5f5f3e3d5ffd5b505050506040513d601f19601f820116820180604052508101906109399190610f83565b10156109875760405162461bcd60e51b815260206004820152601e60248201527f496e73756666696369656e7420676f7665726e616e636520746f6b656e7300006044820152606401610291565b5f8054604051627eeac760e11b815233600482015260248101929092526001600160a01b03169062fdd58e90604401602060405180830381865afa1580156109d1573d5f5f3e3d5ffd5b505050506040513d601f19601f820116820180604052508101906109f59190610f83565b335f90815260056020526040902054610a0f908390610fae565b1115610a755760405162461bcd60e51b815260206004820152602f60248201527f43616e6e6f7420737570706f7274206d6f7265207468616e20676f7665726e6160448201526e1b98d9481d1bdad95b9cc81a195b19608a1b6064820152608401610291565b335f9081526005602052604081208054839290610a93908490610fae565b925050819055508060045f828254610aab9190610fae565b90915550610ab990506106e8565b15610ac657610ac6610b96565b50565b610ad1610eb2565b5f54600b54604051631a98797f60e21b81526001600160a01b0390921691636a61e5fc91610b059160040190815260200190565b5f604051808303815f87803b158015610b1c575f5ffd5b505af1158015610b2e573d5f5f3e3d5ffd5b5050600a805460ff60a01b1916600160a01b17905550505f80546040805163a2911df160e01b815290516001600160a01b039092169263a2911df19260048084019382900301818387803b158015610b84575f5ffd5b505af11580156105f3573d5f5f3e3d5ffd5b6006805460ff19166001179055436007555f8054604080516335c4e28560e11b815290516001600160a01b0390921692636b89c50a9260048084019360209390839003909101908290875af1158015610bf1573d5f5f3e3d5ffd5b505050506040513d601f19601f82011682018060405250810190610c159190610f83565b60088190556001546040515f92610c3f9290916001600160a01b0390911690600390602001611048565b60405160208183030381529060405280519060200120905080604051602001610c769181526279657360e81b602082015260230190565b60408051808303601f190181528282528051602091820120600980546001600160a01b0319166001600160a01b039092169190911790558201839052616e6f60f01b9082015260420160408051808303601f190181528282528051602090910120600a80546001600160a01b0319166001600160a01b039283161790555f8054630217996f60e41b855292519093929091169163217996f091600480830192869291908290030181865afa158015610d30573d5f5f3e3d5ffd5b505050506040513d5f823e601f3d908101601f19168201604052610d579190810190611131565b90505f5b8151811015610ead575f805483516001600160a01b039091169062fdd58e90859085908110610d8c57610d8c6111fc565b60200260200101515f6040518363ffffffff1660e01b8152600401610dc69291906001600160a01b03929092168252602082015260400190565b602060405180830381865afa158015610de1573d5f5f3e3d5ffd5b505050506040513d601f19601f82011682018060405250810190610e059190610f83565b90508015610ea4575f5483516001600160a01b0390911690637de0b0d190859085908110610e3557610e356111fc565b60209081029190910101516008546040516001600160e01b031960e085901b1681526001600160a01b0390921660048301526024820152604481018490526064015f604051808303815f87803b158015610e8d575f5ffd5b505af1158015610e9f573d5f5f3e3d5ffd5b505050505b50600101610d5b565b505050565b600a54600160a01b900460ff1615610eff5760405162461bcd60e51b815260206004820152601060248201526f105b1c9958591e48195e1958dd5d195960821b6044820152606401610291565b565b5f60208284031215610f11575f5ffd5b5035919050565b602081525f82518060208401528060208501604085015e5f604082850101526040601f19601f83011684010191505092915050565b6001600160a01b0381168114610ac6575f5ffd5b5f60208284031215610f71575f5ffd5b8135610f7c81610f4d565b9392505050565b5f60208284031215610f93575f5ffd5b5051919050565b634e487b7160e01b5f52601160045260245ffd5b80820180821115610fc157610fc1610f9a565b92915050565b8082028115828204841417610fc157610fc1610f9a565b5f82610ff857634e487b7160e01b5f52601260045260245ffd5b500490565b81810381811115610fc157610fc1610f9a565b600181811c9082168061102457607f821691505b60208210810361104257634e487b7160e01b5f52602260045260245ffd5b50919050565b8381526bffffffffffffffffffffffff198360601b1660208201525f5f83545f8160011c9050600182168061107e57607f821691505b60208210810361109c57634e487b7160e01b5f52602260045260245ffd5b8080156110b057600181146110cb576110ff565b60ff19841660348801526034831515840288010194506110ff565b5f888152602090205f5b848110156110f4578154898201603401526001909101906020016110d5565b505060348388010194505b509298975050505050505050565b634e487b7160e01b5f52604160045260245ffd5b805161112c81610f4d565b919050565b5f60208284031215611141575f5ffd5b815167ffffffffffffffff811115611157575f5ffd5b8201601f81018413611167575f5ffd5b805167ffffffffffffffff8111156111815761118161110d565b8060051b604051601f19603f830116810181811067ffffffffffffffff821117156111ae576111ae61110d565b6040529182526020818401810192908101878411156111cb575f5ffd5b6020850194505b838510156111f1576111e385611121565b8152602094850194016111d2565b509695505050505050565b634e487b7160e01b5f52603260045260245ffdfea264697066735822122065f7a2fdc63f820c850742aae53f57495a1c05edf4822753f5f267952fcb3a6e64736f6c634300081c0033608060405234801561000f575f5ffd5b5060405161151c38038061151c83398101604081905261002e91610131565b5f80546001600160a01b0384166001600160a01b0319918216179091556001805490911633179055818160036100648282610284565b50436002555f54604051632db7ee7560e21b81523060048201526001600160a01b039091169063b6dfb9d4906024015f604051808303815f87803b1580156100aa575f5ffd5b505af11580156100bc573d5f5f3e3d5ffd5b5050505050505f8151116101165760405162461bcd60e51b815260206004820152601460248201527f4465736372697074696f6e207265717569726564000000000000000000000000604482015260640160405180910390fd5b505061033e565b634e487b7160e01b5f52604160045260245ffd5b5f5f60408385031215610142575f5ffd5b82516001600160a01b0381168114610158575f5ffd5b60208401519092506001600160401b03811115610173575f5ffd5b8301601f81018513610183575f5ffd5b80516001600160401b0381111561019c5761019c61011d565b604051601f8201601f19908116603f011681016001600160401b03811182821017156101ca576101ca61011d565b6040528181528282016020018710156101e1575f5ffd5b8160208401602083015e5f602083830101528093505050509250929050565b600181811c9082168061021457607f821691505b60208210810361023257634e487b7160e01b5f52602260045260245ffd5b50919050565b601f82111561027f57805f5260205f20601f840160051c8101602085101561025d5750805b601f840160051c820191505b8181101561027c575f8155600101610269565b50505b505050565b81516001600160401b0381111561029d5761029d61011d565b6102b1816102ab8454610200565b84610238565b6020601f8211600181146102e3575f83156102cc5750848201515b5f19600385901b1c1916600184901b17845561027c565b5f84815260208120601f198516915b8281101561031257878501518255602094850194600190920191016102f2565b508482101561032f57868401515f19600387901b60f8161c191681555b50505050600190811b01905550565b6111d18061034b5f395ff3fe608060405234801561000f575f5ffd5b50600436106100fb575f3560e01c8063a8e4fb9011610093578063c1211c8611610063578063c1211c86146101f2578063cf09e0d0146101fb578063e660cc0814610204578063eaddd74214610223575f5ffd5b8063a8e4fb90146101b6578063b00d8431146101c9578063b0b46ae6146101d6578063bd0ceeed146101e9575f5ffd5b80636b4c002c116100ce5780636b4c002c1461016f578063702c35fb146101825780637123f175146101995780637284e416146101a1575f5ffd5b806331a38c89146100ff57806338872b17146101285780634162169f146101535780636146195414610165575b5f5ffd5b600a5461011390600160a01b900460ff1681565b60405190151581526020015b60405180910390f35b600a5461013b906001600160a01b031681565b6040516001600160a01b03909116815260200161011f565b5f5461013b906001600160a01b031681565b61016d610236565b005b61016d61017d366004610e8c565b6105e5565b61018b60045481565b60405190815260200161011f565b6101136106d4565b6101a96107d4565b60405161011f9190610ea3565b60015461013b906001600160a01b031681565b6006546101139060ff1681565b61016d6101e4366004610e8c565b610860565b61018b60085481565b61018b60075481565b61018b60025481565b61018b610212366004610eec565b60056020525f908152604090205481565b60095461013b906001600160a01b031681565b60065460ff166102865760405162461bcd60e51b8152602060048201526016602482015275115b1958dd1a5bdb881b9bdd081d1c9a59d9d95c995960521b60448201526064015b60405180910390fd5b5f5f9054906101000a90046001600160a01b03166001600160a01b0316631bf806cb6040518163ffffffff1660e01b8152600401602060405180830381865afa1580156102d5573d5f5f3e3d5ffd5b505050506040513d601f19601f820116820180604052508101906102f99190610f0e565b6007546103069190610f39565b43101561034e5760405162461bcd60e51b8152602060048201526016602482015275456c656374696f6e207374696c6c206f6e676f696e6760501b604482015260640161027d565b5f805460085460405163bd85b03960e01b81526001600160a01b039092169163bd85b039916103839160040190815260200190565b602060405180830381865afa15801561039e573d5f5f3e3d5ffd5b505050506040513d601f19601f820116820180604052508101906103c29190610f0e565b90505f60645f5f9054906101000a90046001600160a01b03166001600160a01b0316634fa76ec96040518163ffffffff1660e01b8152600401602060405180830381865afa158015610416573d5f5f3e3d5ffd5b505050506040513d601f19601f8201168201806040525081019061043a9190610f0e565b6104449084610f52565b61044e9190610f69565b5f8054600954600854604051627eeac760e11b81526001600160a01b0392831660048201526024810191909152939450919291169062fdd58e90604401602060405180830381865afa1580156104a6573d5f5f3e3d5ffd5b505050506040513d601f19601f820116820180604052508101906104ca9190610f0e565b5f8054600a54600854604051627eeac760e11b81526001600160a01b0392831660048201526024810191909152939450919291169062fdd58e90604401602060405180830381865afa158015610522573d5f5f3e3d5ffd5b505050506040513d601f19601f820116820180604052508101906105469190610f0e565b9050826105538284610f39565b10156105925760405162461bcd60e51b815260206004820152600e60248201526d145d5bdc9d5b481b9bdd081b595d60921b604482015260640161027d565b8082116105d75760405162461bcd60e51b8152602060048201526013602482015272141c9bdc1bdcd85b081b9bdd081c185cdcd959606a1b604482015260640161027d565b6105df610ab5565b50505050565b60065460ff16156106385760405162461bcd60e51b815260206004820152601a60248201527f456c656374696f6e20616c726561647920747269676765726564000000000000604482015260640161027d565b335f908152600560205260409020548111156106965760405162461bcd60e51b815260206004820152601e60248201527f496e73756666696369656e7420737570706f727420746f2072656d6f76650000604482015260640161027d565b335f90815260056020526040812080548392906106b4908490610f88565b925050819055508060045f8282546106cc9190610f88565b909155505050565b5f5f60645f5f9054906101000a90046001600160a01b03166001600160a01b0316637c36e8e86040518163ffffffff1660e01b8152600401602060405180830381865afa158015610727573d5f5f3e3d5ffd5b505050506040513d601f19601f8201168201806040525081019061074b9190610f0e565b5f805460405163bd85b03960e01b815260048101929092526001600160a01b03169063bd85b03990602401602060405180830381865afa158015610791573d5f5f3e3d5ffd5b505050506040513d601f19601f820116820180604052508101906107b59190610f0e565b6107bf9190610f52565b6107c99190610f69565b600454101592915050565b600380546107e190610f9b565b80601f016020809104026020016040519081016040528092919081815260200182805461080d90610f9b565b80156108585780601f1061082f57610100808354040283529160200191610858565b820191905f5260205f20905b81548152906001019060200180831161083b57829003601f168201915b505050505081565b60065460ff16156108b35760405162461bcd60e51b815260206004820152601a60248201527f456c656374696f6e20616c726561647920747269676765726564000000000000604482015260640161027d565b5f8054604051627eeac760e11b8152336004820152602481019290925282916001600160a01b039091169062fdd58e90604401602060405180830381865afa158015610901573d5f5f3e3d5ffd5b505050506040513d601f19601f820116820180604052508101906109259190610f0e565b10156109735760405162461bcd60e51b815260206004820152601e60248201527f496e73756666696369656e7420676f7665726e616e636520746f6b656e730000604482015260640161027d565b5f8054604051627eeac760e11b815233600482015260248101929092526001600160a01b03169062fdd58e90604401602060405180830381865afa1580156109bd573d5f5f3e3d5ffd5b505050506040513d601f19601f820116820180604052508101906109e19190610f0e565b335f908152600560205260409020546109fb908390610f39565b1115610a615760405162461bcd60e51b815260206004820152602f60248201527f43616e6e6f7420737570706f7274206d6f7265207468616e20676f7665726e6160448201526e1b98d9481d1bdad95b9cc81a195b19608a1b606482015260840161027d565b335f9081526005602052604081208054839290610a7f908490610f39565b925050819055508060045f828254610a979190610f39565b90915550610aa590506106d4565b15610ab257610ab2610b21565b50565b610abd610e3d565b600a805460ff60a01b1916600160a01b1790555f80546040805163a2911df160e01b815290516001600160a01b039092169263a2911df19260048084019382900301818387803b158015610b0f575f5ffd5b505af11580156105df573d5f5f3e3d5ffd5b6006805460ff19166001179055436007555f8054604080516335c4e28560e11b815290516001600160a01b0390921692636b89c50a9260048084019360209390839003909101908290875af1158015610b7c573d5f5f3e3d5ffd5b505050506040513d601f19601f82011682018060405250810190610ba09190610f0e565b60088190556001546040515f92610bca9290916001600160a01b0390911690600390602001610fd3565b60405160208183030381529060405280519060200120905080604051602001610c019181526279657360e81b602082015260230190565b60408051808303601f190181528282528051602091820120600980546001600160a01b0319166001600160a01b039092169190911790558201839052616e6f60f01b9082015260420160408051808303601f190181528282528051602090910120600a80546001600160a01b0319166001600160a01b039283161790555f8054630217996f60e41b855292519093929091169163217996f091600480830192869291908290030181865afa158015610cbb573d5f5f3e3d5ffd5b505050506040513d5f823e601f3d908101601f19168201604052610ce291908101906110bc565b90505f5b8151811015610e38575f805483516001600160a01b039091169062fdd58e90859085908110610d1757610d17611187565b60200260200101515f6040518363ffffffff1660e01b8152600401610d519291906001600160a01b03929092168252602082015260400190565b602060405180830381865afa158015610d6c573d5f5f3e3d5ffd5b505050506040513d601f19601f82011682018060405250810190610d909190610f0e565b90508015610e2f575f5483516001600160a01b0390911690637de0b0d190859085908110610dc057610dc0611187565b60209081029190910101516008546040516001600160e01b031960e085901b1681526001600160a01b0390921660048301526024820152604481018490526064015f604051808303815f87803b158015610e18575f5ffd5b505af1158015610e2a573d5f5f3e3d5ffd5b505050505b50600101610ce6565b505050565b600a54600160a01b900460ff1615610e8a5760405162461bcd60e51b815260206004820152601060248201526f105b1c9958591e48195e1958dd5d195960821b604482015260640161027d565b565b5f60208284031215610e9c575f5ffd5b5035919050565b602081525f82518060208401528060208501604085015e5f604082850101526040601f19601f83011684010191505092915050565b6001600160a01b0381168114610ab2575f5ffd5b5f60208284031215610efc575f5ffd5b8135610f0781610ed8565b9392505050565b5f60208284031215610f1e575f5ffd5b5051919050565b634e487b7160e01b5f52601160045260245ffd5b80820180821115610f4c57610f4c610f25565b92915050565b8082028115828204841417610f4c57610f4c610f25565b5f82610f8357634e487b7160e01b5f52601260045260245ffd5b500490565b81810381811115610f4c57610f4c610f25565b600181811c90821680610faf57607f821691505b602082108103610fcd57634e487b7160e01b5f52602260045260245ffd5b50919050565b8381526bffffffffffffffffffffffff198360601b1660208201525f5f83545f8160011c9050600182168061100957607f821691505b60208210810361102757634e487b7160e01b5f52602260045260245ffd5b80801561103b57600181146110565761108a565b60ff198416603488015260348315158402880101945061108a565b5f888152602090205f5b8481101561107f57815489820160340152600190910190602001611060565b505060348388010194505b509298975050505050505050565b634e487b7160e01b5f52604160045260245ffd5b80516110b781610ed8565b919050565b5f602082840312156110cc575f5ffd5b815167ffffffffffffffff8111156110e2575f5ffd5b8201601f810184136110f2575f5ffd5b805167ffffffffffffffff81111561110c5761110c611098565b8060051b604051601f19603f830116810181811067ffffffffffffffff8211171561113957611139611098565b604052918252602081840181019290810187841115611156575f5ffd5b6020850194505b8385101561117c5761116e856110ac565b81526020948501940161115d565b509695505050505050565b634e487b7160e01b5f52603260045260245ffdfea26469706673582212207d5a18dcd1d945f2bfe655cadc00a6c5a7b504a2e4d8e32f7d254a0edbff751164736f6c634300081c0033a2646970667358221220bb9f791ffceedd77fb6c78c8d439fdd26c749adcebaf409d608e8fe69979581764736f6c634300081c0033","linkReferences":{}},"methodIdentifiers":{"createMintProposal(string,address,uint256)":"6a88efe1","createResolutionProposal(string)":"fdd6f2b2","createTokenPriceProposal(string,uint256)":"e8064810","createTreasuryProposal(string,address,uint256,address,uint256)":"16ed3b06","dao()":"4162169f","getProposal(uint256)":"c7f758a8","proposalCount()":"da35c664","proposals(uint256)":"013cf08b"},"id":41}